:060000000A128A110C280F
:10000800FE00030EF0000A08F1000A168A11D92D25
:100018000A128A110F288313C230FD001530FE0022
:100028001630FF00A03084000A168A11D2240A1262
:100038008A110A128A11FF270A128A11EF00831601
:100048000313C201C301C401C50183120313E301F1
:10005800E401E501E601E701E801E901EA01EB0154
:10006800EC01ED01EE01FA01FB0183010A128A1588
:100078004F2C83120313DB000A168A1113260A1267
:100088008A111230831603134606031D4C284D2887
:10009800E9290A168A11C1240A128A116C30F6005D
:1000A8009130F7008030F8000A168A11AA250A1242
:1000B8008A117B0883120313D4005407A03E8400DE
:1000C80083130008F600840A00088403F7008630CA
:1000D800F8000A168A11AA250A128A118730F60032
:1000E8009130F700C030F8000A168A11AA250A12C2
:1000F8008A11C63083120313A0000A30F2000030C0
:10010800F3006D08D400D5015408F4005508F50033
:100118000A168A1121270A128A117208303E0A1615
:100128008A11E1240A128A11C73083120313A0002E
:100138000A30F2000030F3006D08D400D5015408ED
:10014800F4005508F5000A168A1169260A128A1160
:100158007208303E0A168A11E1240A128A11C83040
:1001680083120313A0003A300A168A11E1240A12F6
:100178008A11C93083120313A0000A30F20000303C
:10018800F3006E08D400D5015408F4005508F500B2
:100198000A168A1121270A128A117208303E0A1695
:1001A8008A11E1240A128A11CA3083120313A000AB
:1001B8000A30F2000030F3006E08D400D50154086C
:1001C800F4005508F5000A168A1169260A128A11E0
:1001D8007208303E0A168A11E1240A128A11643024
:1001E800F6009130F7009530F8000A168A11AA2512
:1001F8000A128A11333083120313D600BB30D5009C
:10020800DF30D400D40B0629D50B0629D60B0629D6
:100218000A168A11C1240A128A11FE30F60090309B
:10022800F7008030F8000A168A11AA250A128A11E6
:100238009F30F6009130F700C030F8000A168A1196
:10024800AA250A128A115530F6009030F700D030EE
:10025800F8000A168A11AA250A128A1183120313B2
:100268006D08D400D5015408F2005508F3003C305D
:10027800F4000030F5000A168A115C250A128A116A
:10028800831203136E087207E5000030031801306B
:100298007307E6006608E4006508E3006508F200F5
:1002A8006608F3000030F31BFF30F400F50001305E
:1002B8000A128A112F270A128A117508831203134A
:1002C800AD007408AC007308AB007208AA003E3099
:1002D800A900CC30A800CC30A700CD30A6000A1267
:1002E8008A11EA230A128A11831203132908C30008
:1002F8002808C2002708C1002608C0000A128A156B
:1003080048200A128A11831203134108EA004008A0
:10031800E9006508F2006608F3000030F31BFF30BF
:10032800F400F50001300A128A112F270A128A11E7
:10033800750883120313AD007408AC007308AB0092
:100348007208AA003D30A900F530A800C230A70005
:100358008F30A6000A128A11EA230A128A11831220
:1003680003132908C3002808C2002708C10026086B
:10037800C0000A128A1548200A128A118312031330
:100388004108E8004008E7006909D4006A09D50077
:10039800D40A0319D50A67085402D6006808031C52
:1003A800680A5502D7006508560783160313C40068
:1003B8008312031366080318660A57078316031384
:1003C800C50083120313121507151F3083125B062D
:1003D800031DEF29F029F62912110711053083169C
:1003E8000313C70083126D08D400D5015408F20026
:1003F8005508F3003C30F4000030F5000A168A1165
:100408005C250A128A11831203136E087207E5002D
:100418000030031801307307E60008307B02031828
:10042800162A172A782A69086302D4006A08031C66
:100438006A0A6402D5006608803AD6005508803AF0
:100448005602031D292A54086502031C2C2A2D2A4A
:10045800392A1A30F6009130F7008B30F8000A1666
:100468008A11AA250A128A112D2B831203136909EE
:10047800D4006A09D500D40A0319D50A67085402BA
:10048800D6006808031C680A5502D7006308560797
:10049800D80064080318640A5707D9006608803A28
:1004A800DA005908803A5A02031D5C2A5808650286
:1004B800031C5F2A602A6C2A8D30F6009130F70001
:1004C8008B30F8000A168A11AA250A128A112D2BD8
:1004D8008130F6009130F7008B30F8000A168A1147
:1004E800AA250A128A112D2B08307B06031D7D2AA6
:1004F8007E2A102B6508F2006608F3000030F31B13
:10050800FF30F400F50001300A128A112F270A1271
:100518008A11750883120313CB007408CA00730884
:10052800C9007208C8006308F2006408F3000030CC
:10053800F31BFF30F400F50001300A128A112F274F
:100548000A128A11750883120313C7007408C600BB
:100558007308C5007208C4006308F2006408F30059
:100568000030F31BFF30F400F50001300A128A1145
:100578002F270A128A11750883120313AD00740815
:10058800AC007308AB007208AA003E30A900CC305A
:10059800A800CC30A700CD30A6000A128A11EA23A1
:1005A8000A128A11831203132908C3002808C200FB
:1005B8002708C1002608C0000A168A1138250A1221
:1005C8008A11831203134308CF004208CE00410862
:1005D800CD004008CC000A128A15C0200A128A11E0
:1005E800031CF72AF82A042B8D30F6009130F70007
:1005F8008B30F8000A168A11AA250A128A112D2BA7
:100608008130F6009130F7008B30F8000A168A1115
:10061800AA250A128A112D2B09307B06031D152BDA
:10062800162B222B8D30F6009130F7008B30F80016
:100638000A168A11AA250A128A112D2B1A30F600D9
:100648009130F7008B30F8000A168A11AA250A1291
:100658008A11C63083120313A0000A30F20000305A
:10066800F3006D08D400D5015408F4005508F500CE
:100678000A168A1121270A128A117208303E0A16B0
:100688008A11E1240A128A11C73083120313A000C9
:100698000A30F2000030F3006D08D400D501540888
:1006A800F4005508F5000A168A1169260A128A11FB
:1006B8007208303E0A168A11E1240A128A11C830DB
:1006C80083120313A0003A300A168A11E1240A1291
:1006D8008A11C93083120313A0000A30F2000030D7
:1006E800F3006E08D400D5015408F4005508F5004D
:1006F8000A168A1121270A128A117208303E0A1630
:100708008A11E1240A128A11CA3083120313A00045
:100718000A30F2000030F3006E08D400D501540806
:10072800F4005508F5000A168A1169260A128A117A
:100738007208303E0A168A11E1240A128A118312BD
:1007480003136E08031DA92BAA2BE92B6D08031DA3
:10075800AE2BAF2BE92B1211071187140A168A1139
:10076800C1240A128A117730F6009030F7008030E1
:10077800F8000A168A11AA250A128A11A530F6006D
:100788009030F700C030F8000A168A11AA250A121C
:100798008A11333083120313D600BB30D500DF3003
:1007A800D400D40BD52BD50BD52BD60BD52B831238
:1007B8000313871083160313C701C70A1030C60036
:1007C8000A168A11C1240A128A1108008312031317
:1007D80029088039B3002908AE002E07B900A81FE0
:1007E800F62BF72BF82B391439080319FC2BFD2BA2
:1007F8000C2C390A031D012C022C0A2C0030A900EC
:100808000030A8000030A7000030A600A817142C5C
:100818000030A9000030A8000030A7000030A60072
:100828002D088039FF007F08B3062D08AE002E077B
:10083800B400AC1F202C212C222C341434080319AA
:10084800262C272C362C340A031D2B2C2C2C342C2C
:100858000030AD000030AC000030AB000030AA0022
:10086800AC173E2C0030AD000030AC000030AB00BF
:100878000030AA0034080319422C432C482C3908AC
:10088800031D472C482C512C0030A9000030A8002B
:100898000030A7000030A6002E2F2608F2002C08F2
:1008A8000A168A1181250A128A1173088312031302
:1008B800BF007208BE003E08AE00AF01B001B10132
:1008C8003108B8003008B7002F08B6002E08B50068
:1008D8003F08AE00AF01B001B1013108BD003008DA
:1008E800BC002F08BB002E08BA002708F2002B080E
:1008F8000A168A1181250A128A11730883120313B2
:10090800BF007208BE003E08AE00AF01B001B101E1
:100918002E08B5072F0803110318013E0319952C5B
:10092800B607300803110318013E03199C2CB707BA
:10093800310803110318013E0319A32CB8073F0817
:10094800AE00AF01B001B1012E08BA072F0803119C
:100958000318013E0319B12CBB0730080311031813
:10096800013E0319B82CBC07310803110318013ED6
:100978000319BF2CBD072808F2002A080A168A1195
:1009880081250A128A11730883120313BF007208A3
:10099800BE003E08AE00AF01B001B1012E08B50798
:1009A8002F0803110318013E0319DB2CB607300882
:1009B80003110318013E0319E22CB707310803118C
:1009C8000318013E0319E92CB8073F08AE00AF0130
:1009D800B001B1012E08BA072F0803110318013E10
:1009E8000319F72CBB07300803110318013E03193C
:1009F800FE2CBC07310803110318013E0319052D0D
:100A0800BD070830AE000310B50DB60DB70DB80D13
:100A1800AE0B072D2708F2002A080A168A1181252D
:100A28000A128A11730883120313BF007208BE00EA
:100A38003E08AE003F08AF00B001B1012E08B5076F
:100A48002F0803110318013E03192B2DB607300890
:100A580003110318013E0319322DB707310803119A
:100A68000318013E0319392DB8072608F2002B0890
:100A78000A168A1181250A128A1173088312031330
:100A8800BF007208BE003E08AE003F08AF00B001CC
:100A9800B1012E08B5072F0803110318013E0319E9
:100AA800562DB607300803110318013E03195D2DB2
:100AB800B707310803110318013E0319642DB8075D
:100AC8000830AE000310B50DB60DB70DB80DAE0B5E
:100AD800662D2608F2002A080A168A1181250A12AC
:100AE8008A11730883120313BF007208BE003E0800
:100AF800AE003F08AF00B001B1012E08B5072F08BE
:100B080003110318013E03198A2DB6073008031193
:100B18000318013E0319912DB70731080311031873
:100B2800013E0319982DB8072708F2002C080A1669
:100B38008A1181250A128A11730883120313BF00D0
:100B48007208BE003E08AE003F08AF00B001B10118
:100B58002E08BA072F0803110318013E0319B52DF3
:100B6800BB07300803110318013E0319BC2DBC074D
:100B7800310803110318013E0319C32DBD072808C6
:100B8800F2002B080A168A1181250A128A117308A5
:100B980083120313BF007208BE003E08AE003F0870
:100BA800AF00B001B1012E08BA072F0803110318CE
:100BB800013E0319E02DBB07300803110318013E5D
:100BC8000319E72DBC07310803110318013E031967
:100BD800EE2DBD072808F2002C080A168A11812577
:100BE8000A128A11730883120313BF007208BE0029
:100BF8003E08AE003F08AF00B001B1010830031055
:100C0800AE0DAF0DB00DB10DFF3E031D032E2E0826
:100C1800BA072F0803110318013E0319142EBB0746
:100C2800300803110318013E03191B2EBC073108B5
:100C380003110318013E0319222EBD073508AE0023
:100C48003608AF003708B0003808B1001830031074
:100C5800B10CB00CAF0CAE0CFF3E031D2B2E2E08B2
:100C6800BA072F0803110318013E03193C2EBB07CE
:100C7800300803110318013E0319432EBC0731083D
:100C880003110318013E03194A2EBD070830AE00B0
:100C98000310B50DB60DB70DB80DAE0B4C2E3908B7
:100CA8003407AE00AF01AF0D2E08823EBE002F08FC
:100CB8000318013EFF3EBF007E2E0130AE00031038
:100CC800BA0DBB0DBC0DBD0DAE0B632EB81F6D2E3E
:100CD8006E2E6F2E3A140130AE000310B50DB60D0E
:100CE800B70DB80DAE0B712EFF30BE070318BF0A43
:100CF800FF30BF07BC1F812E822E612EB401B81FA2
:100D0800862E872EA32EFF303505AE00FF30360520
:100D1800AF00FF303705B0007F303805B10031082B
:100D280030042F042E0403199A2E9B2E9E2EB401F4
:100D3800B40AA32E3A1CA12EA22EA32E9B2E340851
:100D48000319A72EA82ED92E0130BA070030031890
:100D58000130BB07003003180130BC07003003180E
:100D68000130BD073D1CB92EBA2ED92E3A08AE0067
:100D78003B08AF003C08B0003D08B1000130B200AC
:100D8800310DB10CB00CAF0CAE0CB20BC42E310847
:100D9800BD003008BC002F08BB002E08BA00013087
:100DA800BE070318BF0A0030BF073F08803AFF009C
:100DB80080307F02031DE22EFF303E02031CE52E29
:100DC800E62EF12E7F3083120313BD008030BC0065
:100DD8000030BB000030BA00222F831203133F08F3
:100DE800803AFF0080307F02031DFC2E01303E0256
:100DF8000318FF2E002F0C2F003083120313BD00A1
:100E08000030BC000030BB000030BA00B301222F14
:100E1800831203133E08B900FF30BA05FF30BB0543
:100E28007F30BC050030BD05391C1B2F1C2F1D2F22
:100E3800BC173908AE0003102E0CBD003308FF00A4
:100E48007F08BD043D08A9003C08A8003B08A7008E
:100E58003A08A600080083120313A000200803190B
:100E6800362F372F4B2FF51F3A2F3B2F4B2F720959
:100E7800A2007309A3007409A4007509A500A20AB9
:100E88000319A30A0319A40A0319A50A532F7508FD
:100E9800A5007408A4007308A3007208A2007508CE
:100EA800740473047204031D5A2F5B2F642F0030DF
:100EB800F5000030F4000030F3000030F200E82FB5
:100EC8009630A100742F0130FF007F08A107013080
:100ED8000310A50CA40CA30CA20CFF3E031D6C2F41
:100EE800FE302505031D792F7A2F672F962F0130A5
:100EF800FF007F08A1070130A20700300318013066
:100F0800A307003003180130A4070030031801308C
:100F1800A50701300310A50CA40CA30CA20CFF3EDE
:100F2800031D8E2FFF302505031D9B2F9C2F7B2F24
:100F3800A82F0130A1020130F6000310A20DA30D65
:100F4800A40DA50DF60BA12FA41BAB2FAC2FB22F10
:100F5800023021020318B12FB22F9D2F2118B52F6F
:100F6800B62FBE2FFF30A205FF30A3057F30A405A2
:100F7800FF30A5050310A10C2108F600F701F801C0
:100F8800F90118300310F60DF70DF80DF90DFF3EB5
:100F9800031DC62F7608A2047708A3047808A404C2
:100FA8007908A50420080319DA2FDB2FE02FF51F95
:100FB800DE2FDF2FE02FA5172508F5002408F40001
:100FC8002308F3002208F20008000A168A11A9244F
:100FD8000A128A110A168A11A3240A128A110A16F9
:100FE8008A11B4240A128A11831603130711871071
:080FF8000B178B1708000134F0
:10100200C330F700CD30F600F60B0528F70B0528A4
:10101200F20133300A168A11F6240A128A151B309D
:10102200F7009E30F600F60B1428F70B1428000088
:10103200F20133300A168A11F6240A128A15A630F2
:10104200F600F60B22280000F20133300A168A114C
:10105200F6240A128A152D282E280000F2010130EA
:101062000A168A11F6240A128A15A630F600F60B21
:1010720038280000F2010C300A168A11F6240A12EE
:101082008A15A630F600F60B44280000080003106B
:1010920083120313420D430DC9004908031D522850
:1010A20053285C280030C3000030C2000030C10069
:1010B2000030C000BF284008C4004108C5004208F3
:1010C200C6004308C7001F300310C70CC60CC50C6E
:1010D200C40CFF3E031D65284408C800C217FF3038
:1010E200C005FF30C105FF30C2050030C305963090
:1010F200C902C91F7D287E2898284908803A973E50
:101102000318842885288628532801300310C30C2D
:10111200C20CC10CC00CFF3E031D87280130FF002A
:101122007F08C907031D962897288628AF282030F4
:101132004902031C9D289E28AA2853280130C40076
:101142000310C00DC10DC20DC30DC40BA128013087
:10115200C9024908031DAE28AF289F284808031971
:10116200B328B428BF28C009C109C209C309C00AEB
:101172000319C10A0319C20A0319C30A080000307D
:10118200831203134805D00000304905D100803096
:101192004A05D2007F304B05D30053085204510454
:1011A2005004031DD528D628DE280030CB0000309D
:1011B200CA000030C9000030C80000304C05D00021
:1011C20000304D05D10080304E05D2007F304F05F2
:1011D200D3005308520451045004031DF128F2288D
:1011E200FA280030CF000030CE000030CD000030B1
:1011F200CC00CB1FFD28FE2822290030D000003071
:10120200D1000030D2008030D3004808D002490813
:10121200031C490F0D290E29D1024A08031C4A0F4B
:1012220013291429D2024B08031C4B0F19291A291E
:10123200D3025308CB005208CA005108C900500813
:10124200C800CF1F252926294A290030D0000030A6
:10125200D1000030D2008030D3004C08D0024D08BB
:10126200031C4D0F35293629D1024E08031C4E0F9F
:101272003B293C29D2024F08031C4F0F4129422926
:10128200D3025308CF005208CE005108CD005008B7
:10129200CC008030CB068030CF064F084B02031DB6
:1012A2005C294E084A02031D5C294D084902031DB0
:1012B2005C294C08480203185F296029622903103F
:1012C20063290314080083120313A4001030831649
:1012D20003134606031D6E296F2975290A168A1102
:1012E200C1240A128A15FB01373083120313240624
:1012F200031D7C297D298D290130FF007F08FB0712
:101302000C307B06031D862987298829FB010A16D2
:101312008A11C1240A128A158730F6009030F7002C
:101322008030F8000A168A11AA250A128A15C030DE
:1013320083120313A0003E300A168A11E1240A1216
:101342008A150A307B020318A729A829E8297B08F5
:1013520083120313A2002207A03E84008313000815
:10136200F600840A00088403F700C230F8000A1667
:101372008A11AA250A128A157B0883120313A20076
:101382002207A23E840083130008F600840A0008A4
:101392008403F7009230F8000A168A11AA250A126D
:1013A2008A157B0883120313A2002207A43E84003D
:1013B20083130008F600840A00088403F700D23081
:1013C200F8000A168A11AA250A128A155B2A0A301F
:1013D2007B06031DED29EE29262A7B0883120313BF
:1013E200A2002207A03E840083130008F600840AAC
:1013F20000088403F700C230F8000A168A11AA25F1
:101402000A128A157B0883120313A2002207A23E46
:10141200840083130008F600840A00088403F7009E
:101422009230F8000A168A11AA250A128A15831622
:1014320003132008F6002108F700D230F8000A163C
:101442008A11AA250A128A155B2A0B307B06031D14
:101452002B2A2C2A5B2A7B0883120313A200220761
:10146200A03E840083130008F600840A0008840367
:10147200F700C230F8000A168A11AA250A128A1544
:10148200831603132008F6002108F7009230F800B3
:101492000A168A11AA250A128A158316031322082C
:1014A200F6002308F700D230F8000A168A11AA259E
:1014B2000A128A15080083120313A400113083163E
:1014C20003134606031D662A672A6D2AFA010A16C5
:1014D2008A11C1240A128A15373083120313240693
:1014E200031D742A752A852A0130FF007F08FA0736
:1014F20005307A06031D7E2A7F2A802AFA010A16FF
:101502008A11C1240A128A15F230F6009030F700CF
:101512008030F8000A168A11AA250A128A15C030EC
:1015220083120313A0003E300A168A11E1240A1224
:101532008A1503307A0203189F2AA02AE02A7A0821
:1015420083120313A2002207B83E8400831300080B
:10155200F600840A00088403F700C230F8000A1675
:101562008A11AA250A128A157A0883120313A20085
:101572002207BA3E840083130008F600840A00089A
:101582008403F7009230F8000A168A11AA250A127B
:101592008A157A0883120313A2002207BC3E840034
:1015A20083130008F600840A00088403F700D2308F
:1015B200F8000A168A11AA250A128A15532B03303B
:1015C2007A06031DE52AE62A1E2B7A0883120313E4
:1015D200A2002207B83E840083130008F600840AA2
:1015E20000088403F700C230F8000A168A11AA25FF
:1015F2000A128A157A0883120313A2002207BA3E3E
:10160200840083130008F600840A00088403F700AC
:101612009230F8000A168A11AA250A128A15831630
:1016220003133808F6003908F700D230F8000A161A
:101632008A11AA250A128A15532B04307A06031D31
:10164200232B242B532B7A0883120313A200220785
:10165200B83E840083130008F600840A000884035D
:10166200F700C230F8000A168A11AA250A128A1552
:10167200831603133808F6003908F7009230F80091
:101682000A168A11AA250A128A15831603133A0822
:10169200F6003B08F700D230F8000A168A11AA2594
:1016A2000A128A150800282C213083120313EE0037
:1016B200ED014E2C293083120313EE00592B2D30ED
:1016C20083120313EE00592B7A08003A03195B2B9D
:1016D200013A0319552B033A03195B2B013A0319FB
:1016E200602B073A0319602B4E2C2B308312031305
:1016F200EE00ED01323083120313EE00ED014E2CA9
:10170200393083120313EE00592B7A08003A031979
:101712007B2B013A0319762B033A03197B2B013AEF
:101722000319812B073A0319812B4E2C1A3083128D
:101732000313EE00592B1F3083120313EE00592BB3
:101742007A08003A0319972B013A0319972B033AA7
:101752000319972B013A03199C2B073A03199C2B67
:101762004E2C103083120313EE00ED01ED0A4E2CC5
:10177200243083120313EE00ED01ED0A1C308312B4
:101782000313EE00592B1D3083120313EE004E2C6F
:101792002E3083120313EE00ED0135308312031352
:1017A200EE00ED014E2C3C3083120313EE00592B58
:1017B2007A08003A0319CE2B013A0319C92B033ACE
:1017C2000319CE2B013A0319D42B073A0319D42B50
:1017D2004E2C123083120313EE00ED01F02B143065
:1017E20083120313EE00ED014E2C7A08003A03191E
:1017F200F02B013A0319EA2B033A0319F02B013AB1
:101802000319F02B073A0319F02B4E2C06308312E2
:101812000313EE004E2C103083120313EE00ED0181
:10182200153083120313EE00ED014E2C7A08003AB4
:101832000319112C013A03190C2C033A0319112C28
:10184200013A0319972B073A0319972B4E2C7B0861
:10185200003A0319652B013A0319862B033A03193F
:10186200A12B013A0319B22B073A0319B92B013AFA
:101872000319BF2B033A0319C42B013A0319D92BBD
:101882000F3A0319F62B013A0319072C033A0319ED
:10189200172C013A0319172C4E2C08008316031338
:1018A200C701C70A1030C6000A128A11E9270A12B4
:1018B2008A153330F6009030F7008030F8000A16AF
:1018C2008A11AA250A128A151130F6009030F70003
:1018D200C030F8000A168A11AA250A128A15663043
:1018E200F6009030F7009030F8000A168A11AA2507
:1018F2000A128A15902CB83083120313DE000B30C3
:10190200DF00FF30DE070318DF0AFF30DF075E0A61
:10191200031D8F2C5F0A031D8F2C902C822C01300B
:101922000A168A11C2260A128A152F3A031D9A2C08
:101932009B2C7C2C0A168A11C1240A128A15831642
:101942000313C701C70A1030C6000A128A11E92719
:101952000A128A150030F6009030F700C030F80005
:101962000A168A11AA250A128A159730F6009030B3
:10197200F7009030F8000A168A11AA250A128A1571
:10198200143083120313DD007930DC00DC0BC72C2A
:10199200DD0BC72C0A168A11C1240A128A150A16EF
:1019A2008A1188270A128A1501300A168A11C2265C
:1019B2000A128A1583120313E200B830E0000B30DA
:1019C200E100FF30E0070318E10AFF30E107600A97
:1019D200031DEF2C610A031DEF2CF02CE22CB73013
:1019E2006206031DF52CF62C022D83160313470302
:1019F200031DFC2CFD2C022D0230C7001130C60045
:101A0200912DB73083126206031D082D092D412D39
:101A12000230831603134706031D102D112D412D8D
:101A22000A128A1554230A128A150A168A11C12427
:101A32000A128A15CD30F6009030F7008030F80097
:101A42000A168A11AA250A128A15B330F6009030B6
:101A5200F700C030F8000A168A11AA250A128A1560
:101A6200DA30F6009030F7009030F8000A168A114A
:101A7200AA250A128A15033083160313C700912D73
:101A82002F3083126206031D472D482D592D053034
:101A9200831603134706031D4F2D502D592D831214
:101AA200031312150715043083160313C700912D73
:101AB200912D8312031362080A128A1564210A12F5
:101AC2008A15A12D8312031362080A128A155C2259
:101AD2000A128A15A12D2F30831203136206031DE9
:101AE200732D742D7B2D043083160313C70012301F
:101AF200C600D52C1F306206031D802D812DA12D1D
:101B020083160313C701C70A1030C600D52C8312EF
:101B1200031362080A128A113D200A128A15A12DA6
:101B2200831603134708013A03195A2D033A03197E
:101B3200632D013A03196C2D073A0319882DA12D43
:101B420083160313C601D52C0A128A110C287508B4
:101B5200803983120313A8007508A0002007AA0089
:101B6200F41FB42DB52DB62D2A142A080319BA2D47
:101B7200BB2DCB2D2A0A031DBF2DC02DC82D003031
:101B8200F5000030F4000030F3000030F200F417EA
:101B9200F501D32D0030F5000030F4000030F300E1
:101BA2000030F20079088039A900290828060319B3
:101BB200DB2DDC2DDD2D28177908A0002007A900D8
:101BC200F81FE42DE52DE62D291429080319EA2D25
:101BD200EB2DFB2D290A031DEF2DF02DF82D0030E2
:101BE200F9000030F8000030F7000030F600F81776
:101BF200F901032E0030F9000030F8000030F70040
:101C02000030F6002A0829020318082E092E2F2E6A
:101C1200281F0C2E0D2E112E8030FF007F08A806E3
:101C22002A08AB002908AA002B08A9007208AB00F9
:101C32007608F2002B08F6007308AB007708F30071
:101C42002B08F7007408AB007808F4002B08F800A2
:101C52007508AB007908F5002B08F900AB012908DB
:101C6200A000A1012108A3002A082002A200031C4F
:101C7200A3032308803AFF0080307F02031D432E16
:101C82001A302202031C462E472E7E2E750874043B
:101C920073047204031D4E2E502E0130512E00305B
:101CA20083120313AB000030F5000030F400003063
:101CB200F3000030F2002908AA00862E2B1C622EA7
:101CC200632E6A2E2B08A0000310200C0138AB00F3
:101CD2006C2E0310AB0C721C6F2E702E712EAB1774
:101CE2000130A000750DF50CF40CF30CF20CA00BF6
:101CF200732E0130FF007F08AA07831203132908FD
:101D02002A02031C852E862E5F2E281B892E8A2EE0
:101D1200D32E2A08031D8E2E8F2E982E0030F5000A
:101D22000030F4000030F3000030F200FF2F76089C
:101D3200F207770803110318013E0319A12EF307D6
:101D4200780803110318013E0319A82EF407790835
:101D520003110318013E0319AF2EF507751CB22EAD
:101D6200B32E872F2B1CB62EB72EBE2E2B08A0000B
:101D72000310200C0138AB00C02E0310AB0C721CF8
:101D8200C32EC42EC52EAB170130A000750DF50C65
:101D9200F40CF30CF20CA00BC72E0130FF007F08ED
:101DA200AA07872F7508803AFF007908803A7F02D8
:101DB200031DE52E78087402031DE52E77087302D1
:101DC200031DE52E760872020318E82EE92E412F34
:101DD200FF30A000FF30A100FF30A200FF30A300BF
:101DE2007608A4007708A5007808A6007908A7005D
:101DF2007208A4027308031C730F002F012FA5029F
:101E02007408031C740F062F072FA6027508031C03
:101E1200750F0C2F0D2FA7022408A0072508031801
:101E2200250F142F152FA10726080318260F1A2F86
:101E32001B2FA20727080318270AA3072308F50068
:101E42002208F4002108F3002008F2008030FF008D
:101E52007F08A806AB09AB0A2B08031D312F322FCE
:101E62004F2F0130F207003003180130F307003022
:101E720003180130F407003003180130F5074F2F23
:101E82007608F2027708031C770FF3027808031C26
:101E9200780FF4027908031C790FF50275087404AF
:101EA20073047204031D562F572F832F2B08031D13
:101EB2005B2F5C2F832F0030F5000030F4000030E0
:101EC200F3000030F200FF2F0130A0000310F20DEA
:101ED200F30DF40DF50DA00B672FAB1F712F722FB1
:101EE200732F72142B1C762F772F7A2F0314AB0DBE
:101EF2007C2F0310AB0D2A080319802F812F832F0B
:101F02000130AA02F41F862F872F652FA901AB1F6C
:101F12008B2F8C2F9A2F2B087F390319912F922FF9
:101F2200952FA901A90A9A2F721C982F992F9A2FDF
:101F3200922F290803199E2F9F2FD32F0130F207CA
:101F4200003003180130F307003003180130F407A2
:101F5200003003180130F507751CB02FB12FD32FB5
:101F62007208A0007308A1007408A2007508A300FB
:101F72000130A400230DA30CA20CA10CA00CA40BF5
:101F8200BB2F2308F5002208F4002108F3002008E3
:101F9200F2002A0A0319CE2FCF2FD32F0130FF00D0
:101FA2007F08AA072A0A0319D72FD82FDD2F2A085C
:101FB200031DDC2FDD2FEB2F0030F5000030F40085
:101FC2000030F3000030F2002A08031DE92FEA2F47
:101FD200EB2FA8012A1CEE2FEF2FF12FF417F52F6C
:101FE2007F30FF007F08F4052A08A0000310200CB0
:101FF200F500A81FFD2FFE2FFF2FF5170800203434
:10200200203420342034203463346F3473346D34FC
:102012006F3473342034203420342034203400349C
:10202200203420342034203450346F3477346534F3
:10203200723420344F344E3420342034203420344F
:1020420000342034203450344F3457344534523421
:1020520049344E34473420344F344E342034203403
:102062002034003420345034723465347334733481
:1020720020344B34653479343534203454346F345D
:10208200203420340034203457344134533448341B
:1020920049344E34473420344D3441344334483487
:1020A20049344E344534003435342D3453345434A9
:1020B2004134523454342034203436342D345034A4
:1020C2004134553453344534003420345734613468
:1020D2007334683469346E34673420344D34613477
:1020E2006334683469346E34653400345034723485
:1020F2006F3467342E34203443346F346D3470348B
:102102006C34653474346534643400345734613467
:102112007334683469346E34673420345034723422
:102122006F346734723461346D34003420342034B7
:10213200203420344D3461346334683469346E346D
:102142006534203420340034523465346D346F34B5
:1021520076346534203443346C346F3474346834E8
:102162007334003420345334573435343A34203401
:1021720053345434413452345434203400345034BF
:102182006C346534613473346534203443346C34D4
:102192006F347334653400345034723465347334BC
:1021A2007334203453347734693474346334683488
:1021B200003420345334573436343A3420345334D0
:1021C20054344F3450342034003444344F344F3478
:1021D200523420343A3420344F34503445344E345F
:1021E20000345734613474346534723420344C34DE
:1021F2006534763465346C340034463475346E3468
:102202006334743469346F346E3420342D340034C2
:1022120041347134753461342034733474346F341E
:1022220072346534003453347434613469346E3436
:1022320020345734613473346834003445346334A1
:102242006F3443346F34743474346F346E34733493
:102252000034443465346C34693463346134743426
:10226200653473340034423465346434533468342E
:1022720065346534743473340034573461347334E0
:10228200683420344F346E346C3479340034523430
:1022920069346E34733465342B3444347234793493
:1022A200003457346F346F346C346C3465346E34AC
:1022B2007334003444347234793420346F346E34DD
:1022C2006C347934003428344D344D343A34533438
:1022D200533429340034503472346F3467343A340E
:1022E200203400344D3465346434693475346D34CB
:1022F20000345734683469347434653473340034C8
:102302005334703469346E342034003454346934B4
:102312006D3465343A340034523469346E34733473
:10232200653400344434613469346C3479340034B3
:102332004834653461347634793400345434493461
:102342004D344534003448346934673468340034D9
:102352004134753474346F3400344C346F34773410
:1023620000344D34613478340034FF1BC0298313A8
:102372007F1883170008840A0319FF0A08007F08E0
:0E2382007F398A000408840A0319FF0A8200CA
:102946008316031306083F38860008008316031310
:102956008801091189100A128A1501200A168A119E
:1029660008008312031312149214FA308316031309
:1029760092008C148312031312110800F201013025
:102986000A168A11F6240A168A11A630F600F60BE4
:10299600CA2C000008007E088A007F0882000A16FA
:1029A6008A11CE240A168A118000840A04087D063C
:1029B60003190034FF0A0319FE0AD22C83120313EB
:1029C600A100F20120080A168A11F6240A168A11B5
:1029D600F201F20A8312031321080A168A11F62459
:1029E6000A168A110800F5007218FA2CFE2C8312BA
:1029F60003130915012D83120313091175088800A5
:102A06008914A630F300F30B062D0000831203137E
:102A160089101B30F4009E30F300F30B102DF40BDD
:102A2600102D0000080093349134993491342A34DF
:102A360091347A349134143491341F3491345234AD
:102A4600913434349134483491345B3491343E3487
:102A5600913409349134A9349134AE3491347334B9
:102A66009134A4349134B2349134803083120313F8
:102A7600C3064708F5004608F4004508F300440875
:102A8600F2004308F9004208F8004108F700400840
:102A9600F6000A128A15A8250A168A1175088312E5
:102AA6000313C3007408C2007308C1007208C00093
:102AB6000800F601F701721C612D622D682D74085D
:102AC600F6070318F70A7508F70701300310F40D27
:102AD600F50DFF3E031D692D01300310F30CF20CBA
:102AE600FF3E031D702D72087304031D7B2D7C2D84
:102AF6005E2D7708F3007608F200080083120313B0
:102B0600A400A001A1017208F400F5017408A20056
:102B16007508A300241C902D912D972D2208A0073F
:102B26000318A10A2308A10701300310A20DA30D63
:102B3600FF3E031D982D0310A40C2408031DA42D8D
:102B4600A52D8D2D2108F3002008F2000800F201C2
:102B560078080A168A11F6240A168A11C82DF20177
:102B6600F20A7708FF00760884000A168A11B62151
:102B76000A168A110A168A11F6240A168A110130D3
:102B8600F6070318F70A0030F707770883120313CE
:102B9600FF00760884000A168A11B6210A168A11E1
:102BA600003A031DD72DD82DB22D0800831203132A
:102BB6008C1CDE2DDF2D0C2E013083160313C2076D
:102BC6000318C30A0030C307E23042060430031973
:102BD6004306031DEF2DF02D0A2EC201C3018312F9
:102BE60003136E080319F82DF92DFC2D0130EE02A2
:102BF6000A2E6E08031D002E012E0A2E6D080319DB
:102C0600052E062E0A2E0130ED023B30EE00831211
:102C16008C1071088A00700E8300FE0E7E0E09006D
:102C2600831203130618182E192E682E87140711FF
:102C360012110A168A11C1240A168A11E630F60004
:102C46009030F7008030F8000A168A11AA250A1675
:102C56008A11C030F6009030F7009030F8000A165E
:102C66008A11AA250A168A1183120313061C3C2E02
:102C76003D2E372E0A168A11C1240A168A1183128E
:102C86000313071512158710FE30F6009030F70073
:102C96008030F8000A168A11AA250A168A119F3072
:102CA600F6009130F700C030F8000A168A11AA25FE
:102CB6000A168A115530F6009030F700D030F80029
:102CC6000A168A11AA250A168A110800F701F51FA5
:102CD6006D2E6E2E752EF409F509F40A0319F50A00
:102CE600F701F70AF31F782E792E7E2EF209F309E3
:102CF600F20A0319F30A720873040319832E842E49
:102D0600B32EF601F60A922E01300310F20DF30DE2
:102D1600FF3E031D882E0130FF007F08F607F31FD4
:102D2600952E962E872E73087502031D9C2E72080B
:102D36007402031C9F2EA02EA62E7208F40273089E
:102D4600031CF503F50201300310F30CF20CFF3EF1
:102D5600031DA72E0130F602031DB22EB32E962EAA
:102D660077080319B72EB82EBD2EF409F509F40A13
:102D76000319F50A7508F3007408F2000800F30059
:102D86007308031DC72EC82ECD2E83120313060803
:102D96003F39202F3F30831203130605F2003F30E0
:102DA60072060319D72ED82EE32E6F080319DC2ED0
:102DB600DD2EE32EEF01EB0106083F39EC001F2F55
:102DC6006F08031DE72EE82EFA2E06083F396C061B
:102DD600031DEE2EEF2EFA2E1E306B020318F42E74
:102DE600F52EFA2E0130FF007F08EB071F2F1E304D
:102DF6006B06031DFF2E002F072F0130FF007F08F3
:102E0600EB076C088038202F3F300605F2003F3074
:102E16007206031D0F2F102F1F2F6F08031D142F6F
:102E2600152F1F2FEF01EF0A1E306B0203181C2F00
:102E36001D2F1F2F6C08202F3F300800F701F31FAE
:102E4600252F262F2D2FF209F309F20A0319F30A6B
:102E5600F701F70AF51F302F312F3A2FF409F5093C
:102E6600F40A0319F50A0130FF007F08F706F80196
:102E7600F901720873040319412F422F792FF601C5
:102E8600F60A502F01300310F20DF30DFF3E031D1D
:102E9600462F0130FF007F08F607F31F532F542FEC
:102EA600452F01300310F80DF90DFF3E031D552F78
:102EB60073087502031D612F72087402031C642FC8
:102EC600652F6C2F7208F4027308031CF503F502D4
:102ED600781401300310F30CF20CFF3E031D6D2F26
:102EE6000130F602031D782F792F542F7708031926
:102EF6007D2F7E2F832FF809F909F80A0319F90A9D
:102F06007908F3007808F200080083120313A5017C
:102F16002508803EA000FF300A168A11E1240A1611
:102F26008A11033083120313A4008A30A30055309C
:102F3600A200A20B9C2FA30B9C2FA40B9C2F01304D
:102F4600FF007F0883120313A50710302502031C18
:102F5600AD2FAE2F8B2F2230F6009030F700C03009
:102F6600F8000A168A11AA250A168A114430F600B4
:102F76009030F7009030F8000A168A11AA250A1632
:102F86008A11103083120313A6002608D03EA00033
:102F9600FF300A168A11E1240A168A1103308312B9
:102FA6000313A4008A30A3005530A200A20BD92F28
:102FB600A30BD92FA40BD92F013083120313A6021A
:102FC6002608031DE72FE82FC82FD030A000FF30BA
:102FD6000A168A11E1240A168A110D308312031388
:102FE600A400AF30A300B530A200A20BF82FA30BAC
:0A2FF600F82FA40BF82FFF2F08009E
:08400000FF3FFF3FFF3FFF3FC0
:02400E00FB3F76
:00000001FF
